{"abi":[{"type":"constructor","inputs":[{"name":"_usdc","type":"address","internalType":"address"}],"stateMutability":"nonpayable"},{"type":"function","name":"attestAndSplit","inputs":[{"name":"queryId","type":"bytes32","internalType":"bytes32"},{"name":"amount","type":"uint256","internalType":"uint256"},{"name":"cites","type":"tuple[]","internalType":"struct AttributionLedger.Citation[]","components":[{"name":"author","type":"address","internalType":"address"},{"name":"weightBps","type":"uint16","internalType":"uint16"}]}],"outputs":[],"stateMutability":"nonpayable"},{"type":"function","name":"attested","inputs":[{"name":"","type":"bytes32","internalType":"bytes32"}],"outputs":[{"name":"","type":"bool","internalType":"bool"}],"stateMutability":"view"},{"type":"function","name":"authorEarnings","inputs":[{"name":"","type":"address","internalType":"address"}],"outputs":[{"name":"","type":"uint256","internalType":"uint256"}],"stateMutability":"view"},{"type":"function","name":"usdc","inputs":[],"outputs":[{"name":"","type":"address","internalType":"contract IERC20"}],"stateMutability":"view"},{"type":"event","name":"AuthorPaid","inputs":[{"name":"queryId","type":"bytes32","indexed":true,"internalType":"bytes32"},{"name":"author","type":"address","indexed":true,"internalType":"address"},{"name":"amount","type":"uint256","indexed":false,"internalType":"uint256"},{"name":"weightBps","type":"uint16","indexed":false,"internalType":"uint16"}],"anonymous":false},{"type":"event","name":"QueryAttested","inputs":[{"name":"queryId","type":"bytes32","indexed":true,"internalType":"bytes32"},{"name":"payer","type":"address","indexed":true,"internalType":"address"},{"name":"total","type":"uint256","indexed":false,"internalType":"uint256"},{"name":"citationCount","type":"uint256","indexed":false,"internalType":"uint256"}],"anonymous":false},{"type":"error","name":"AlreadyAttested","inputs":[]},{"type":"error","name":"BadWeightSum","inputs":[{"name":"got","type":"uint256","internalType":"uint256"}]},{"type":"error","name":"NoCitations","inputs":[]},{"type":"error","name":"ZeroAuthor","inputs":[]}],"bytecode":{"object":"0x60a060405234801561000f575f80fd5b506040516107a93803806107a983398101604081905261002e9161003f565b6001600160a01b031660805261006c565b5f6020828403121561004f575f80fd5b81516001600160a01b0381168114610065575f80fd5b9392505050565b6080516107186100915f395f818160530152818161025a01526103b301526107185ff3fe608060405234801561000f575f80fd5b506004361061004a575f3560e01c80633e413bee1461004e5780634ce3583f14610092578063849408af146100a7578063c4b9f774146100d9575b5f80fd5b6100757f000000000000000000000000000000000000000000000000000000000000000081565b6040516001600160a01b0390911681526020015b60405180910390f35b6100a56100a0366004610558565b610106565b005b6100c96100b53660046105d4565b60016020525f908152604090205460ff1681565b6040519015158152602001610089565b6100f86100e73660046105eb565b5f6020819052908152604090205481565b604051908152602001610089565b5f8481526001602052604090205460ff1615610135576040516335d9080560e01b815260040160405180910390fd5b805f81900361015757604051631cad5f6560e31b815260040160405180910390fd5b5f805b828110156101f4575f85858381811061017557610175610618565b61018b92602060409092020190810191506105eb565b6001600160a01b0316036101b257604051635b9ade4b60e11b815260040160405180910390fd5b8484828181106101c4576101c4610618565b90506040020160200160208101906101dc919061062c565b6101ea9061ffff1683610661565b915060010161015a565b50806127101461021e57604051630ec0c11560e11b81526004810182905260240160405180910390fd5b5f86815260016020819052604091829020805460ff19169091179055516323b872dd60e01b8152336004820152306024820152604481018690527f00000000000000000000000000000000000000000000000000000000000000006001600160a01b0316906323b872dd906064016020604051808303815f875af11580156102a8573d5f803e3d5ffd5b505050506040513d601f19601f820116820180604052508101906102cc919061067a565b505f805b83811015610511575f6102e4600186610699565b8214610334576127108787848181106102ff576102ff610618565b9050604002016020016020810190610317919061062c565b6103259061ffff168a6106ac565b61032f91906106c3565b61033e565b61033e8389610699565b905061034a8184610661565b9250805f8089898681811061036157610361610618565b61037792602060409092020190810191506105eb565b6001600160a01b03166001600160a01b031681526020019081526020015f205f8282546103a49190610661565b90915550506001600160a01b037f00000000000000000000000000000000000000000000000000000000000000001663a9059cbb8888858181106103ea576103ea610618565b61040092602060409092020190810191506105eb565b6040516001600160e01b031960e084901b1681526001600160a01b039091166004820152602481018490526044016020604051808303815f875af115801561044a573d5f803e3d5ffd5b505050506040513d601f19601f8201168201806040525081019061046e919061067a565b5086868381811061048157610481610618565b61049792602060409092020190810191506105eb565b6001600160a01b0316897f4db12384409d022e164093028b1c69ede272ad4ac310dbced682ae7ed9821561838a8a878181106104d5576104d5610618565b90506040020160200160208101906104ed919061062c565b6040805192835261ffff90911660208301520160405180910390a3506001016102d0565b506040805187815260208101859052339189917f31cb241572a05435f9039f26d02f4ac477833afefbf78a22e2248b7b961dfa96910160405180910390a350505050505050565b5f805f806060858703121561056b575f80fd5b8435935060208501359250604085013567ffffffffffffffff80821115610590575f80fd5b818701915087601f8301126105a3575f80fd5b8135818111156105b1575f80fd5b8860208260061b85010111156105c5575f80fd5b95989497505060200194505050565b5f602082840312156105e4575f80fd5b5035919050565b5f602082840312156105fb575f80fd5b81356001600160a01b0381168114610611575f80fd5b9392505050565b634e487b7160e01b5f52603260045260245ffd5b5f6020828403121561063c575f80fd5b813561ffff81168114610611575f80fd5b634e487b7160e01b5f52601160045260245ffd5b808201808211156106745761067461064d565b92915050565b5f6020828403121561068a575f80fd5b81518015158114610611575f80fd5b818103818111156106745761067461064d565b80820281158282048414176106745761067461064d565b5f826106dd57634e487b7160e01b5f52601260045260245ffd5b50049056fea26469706673582212203273b1e6fea10b6fc28514d8d9e69e134725ffda234799d6a999c7a3570de05b64736f6c63430008180033","linkReferences":{}},"methodIdentifiers":{"attestAndSplit(bytes32,uint256,(address,uint16)[])":"4ce3583f","attested(bytes32)":"849408af","authorEarnings(address)":"c4b9f774","usdc()":"3e413bee"},"id":19}